:02000004080AE8
:1000000000000A08F8320A08000006000600050190
:080010000402FD0800000000DD
:040018000C2F0A0897
:10001C0009480A4908B5884205D0094A824202D0EB
:10002C00121A02F010FE0748074A0021121A02F0B9
:10003C0018FE064808BD00BF0000002054320A0814
:10004C007C0000207C000020450600204506002096
:10005C0070B501F05BFF0025054E064CA41BA408EF
:10006C00A54200D170BD56F8043B98470135F7E71F
:10007C0020320A0844320A0800F018B808B500F01B
:10008C006DF8BDE8084001F0F9BE01F0A5BC01F027
:10009C00A3BC01F0A9BC0078B0FA80F0400970470D
:1000AC000123037070471068704700001FB502F001
:1000BC00F3FA4FF4165102F0D5FA0121072002F0A1
:1000CC0023FD124A1249134801F0ADFF00240C2302
:1000DC000194ADF80430104B042202930F4901AB8C
:1000EC000F48039401F050FC234602220D490E48A0
:1000FC0001F04AFC02F0D0FA4FF4165102F0B2FAB9
:10010C000A4800F053F904B010BD00BF202F0A08B4
:10011C00F5010A0807200A08B3000A08AC00002001
:10012C00292F0A0894000020362F0A08BC00002052
:10013C0038B5046805467CB16368013B63605BB904
:10014C00236820469B689847A368013BA3601BB9B2
:10015C0023682046DB689847284638BD30B5012116
:10016C0087B0072002F0E1FC0A2002F0F7FC2D21F9
:10017C00184B194D1860A0F51B700A2290FBF1F179
:10018C0002A801F078FD02A9284601F05BFD134C92
:10019C0002A801F0C3FC4FF47A7001F015FE23683D
:1001AC00502B14DD0E4B2A681B780E498DF800304D
:1001BC0002A83C2302F02AF803A8FFF7B9FF00239A
:1001CC0023604FF47A7001F0FFFD07B030BD0133AE
:1001DC002360F6E790000020AC000020A80000206F
:1001EC008C000020432F0A081FB5044601F068FD5F
:1001FC002D4B1860A0F13303042B11D800212B4B8D
:10020C0019702B4B1A682B4801F0B6F9294800F0ED
:10021C0003F94FF47A7001F0D7FD012004B010BD42
:10022C00A0F13803072B06D80124204B1C70224B5D
:10023C0000211A68E7E74038062804D802221B4B35
:10024C001A701E4BF4E720461D4901F027FDF0B152
:10025C000322164B00211A701A4B16481A6801F02B
:10026C008BF9144800F0D8F84FF47A7001F0ACFD1B
:10027C00154B164A1B7816498DF8003002A83C2302
:10028C0001F0C4FF03A8FFF753FF0120C6E702F0FB
:10029C0003FA104901F03FFD02F0FEF9216801F06C
:1002AC004DFD4FF0FF30B9E7940000200C0000200A
:1002BC007C000020BC000020800000208800002072
:1002CC004D2F0A08840000208C0000205A2F0A08A9
:1002DC008E2F0A089B2F0A0810B50024184B1949B9
:1002EC001C70194801F064FC184B194A19491B7809
:1002FC0012780988184800F07EF822462146FF2023
:10030C0001F07EF9154B21461860FF22204601F0C2
:10031C0077F9134B224618608F21642001F070F995
:10032C00104B22461860FF21204601F069F90E4B54
:10033C000E491860BDE810400D4801F039BC00BFF3
:10034C008C000020AA2F0A0898000020080000202A
:10035C000400002000000020BC00002080000020D1
:10036C007C0000208800002084000020A92F0A08AF
:10037C00AC00002038B50446C0680D4608B101F049
:10038C0033FBA379062B0CBF04200320684380B2F7
:10039C00A08001F021FBE06028B10021A28802F0CE
:1003AC0060FC658038BDA0806080FBE710B504461A
:1003BC000121C07902F0A8FB0021E07902F0B5FB25
:1003CC000123237010BD38B5037805460C461BB1CC
:1003DC000021C07902F098FB2B78EC7153B1A4B2D8
:1003EC002046012102F090FB2046BDE83840002158
:1003FC0002F09BBB38BD70B50025044616468371D0
:10040C00C0E9035505700572FFF7B4FF204631466D
:10041C00FFF7D9FF204670BDC368002B00F0418464
:10042C00F0B583790446023BDBB2042B8CBF32253A
:10043C00284A87B098BF52F8235001F027F9236956
:10044C00C01AA842F9D372B6A388A579ADF80A30C0
:10045C00BDF80A30022DE1689BB200F06E82072DC8
:10046C0000F06B82062D00F01D84052D00F0A18399
:10047C00082D00F09E83002D40F04F85002B00F0DE
:10048C0092834FF40006144A0496BDF80A300331E7
:10049C00033B9BB2ADF80A3011F8033CDBB28DF88C
:1004AC00073011F8023CDBB28DF8063011F8013C34
:1004BC00DBB28DF808309DF807709DF806309DF87A
:1004CC0008001B0243EA0743034303938DF80550CE
:1004DC001BE100BFB82F0A08D0000020004600BF67
:1004EC0000BF00BF00BF00BF00BF00BF00BF00BF08
:1004FC0000BF00BF00BF00BF00BF00BF00BF00BFF8
:10050C0000BF00BF00BF00BF00BF00BF00BF00BFE7
:10051C0000BF00BF00BF00BF00BF00BF00BF00BFD7
:10052C0000BF00BF00BF00BF00BF00BF00BF00BFC7
:10053C0000BF00BF00BF00BF00BF00BF00BF00BFB7
:10054C0000BF00BF00BF00BF00BF00BF00BF00BFA7
:10055C0000BF00BF00BF00BF00BF00BF00BF00BF97
:10056C0000BF00BF00BF00BF00BF00BF00BF00BF87
:10057C0000BF00BF00BF00BF00BF00BF00BF00BF77
:10058C0000BF00BF00BF00BF00BF00BF00BF00BF67
:10059C0000BF00BF00BF00BF00BF00BF00BF00BF57
:1005AC0000BF00BF00BF00BF00BF00BF00BF00BF47
:1005BC0000BF00BF00BF00BF00BF00BF00BF00BF37
:1005CC0000BF00BF00BF00BF00BF00BF00BF00BF27
:1005DC0000BF00BF00BF00BF00BF00BF00BF00BF17
:1005EC0000BF00BFE3791068C3EBC30300EB8307C4
:1005FC00BF8850F823305F83004600BF00BF00BFA8
:10060C0000BF00BF00BF00BF00BF00BF00BF00BFE6
:10061C0000BF00BF00BF00BF00BF00BF00BF00BFD6
:10062C0000BF00BF00BF00BF00BF00BF00BF00BFC6
:10063C0000BF00BF00BF00BF00BF00BF00BF00BFB6
:10064C0000BF00BF00BF00BF00BF00BF00BF00BFA6
:10065C0000BF00BF00BF00BF00BF00BF00BF00BF96
:10066C0000BF00BF00BF00BF00BF00BF00BF00BF86
:10067C0000BF00BF00BF00BF00BF00BF00BF00BF76
:10068C0000BF00BF00BF00BF00BF00BF00BF00BF66
:10069C0000BF00BF00BF00BF00BF00BF00BF00BF56
:1006AC0000BF00BF00BF00BF00BF00BF00BF00BF46
:1006BC0000BF00BF00BF00BF00BF00BF00BF00BF36
:1006CC0000BF00BF00BF00BF00BF00BF00BF00BF26
:1006DC0000BF00BF00BF00BF00BF00BF00BF00BF16
:1006EC0000BF00BF00BF00BF00BF00BF00BF00BF06
:1006FC0000BF049B5B0804939DF805300133DBB20B
:10070C00172B8DF8053000F22787E3791068C3EBBF
:10071C00C30300EB8307BF8850F823301F83039873
:10072C00049B18427FF4DAAE004600BF00BF00BF46
:10073C0000BF00BF00BF00BF00BF00BF00BF00BFB5
:10074C0000BF00BF00BF00BF00BF00BF00BF00BFA5
:10075C0000BF00BF00BF00BF00BF00BF00BF00BF95
:10076C0000BF00BF00BF00BF00BF00BF00BF00BF85
:10077C0000BF00BF00BF00BF00BFE3791068C3EB30
:10078C00C30300EB8307BF8850F823305F83004618
:10079C0000BF00BF00BF00BF00BF00BF00BF00BF55
:1007AC0000BF00BF00BF00BF00BF00BF00BF00BF45
:1007BC0000BF00BF00BF00BF00BF00BF00BF00BF35
:1007CC0000BF00BF00BF00BF00BF00BF00BF00BF25
:1007DC0000BF00BF00BF00BF00BF00BF00BF00BF15
:1007EC0000BF00BF00BF00BF00BF00BF00BF00BF05
:1007FC0000BF00BF00BF00BF00BF00BF00BF00BFF5
:10080C0000BF00BF00BF00BF00BF00BF00BF00BFE4
:10081C0000BF00BF00BF00BF00BF00BF00BF00BFD4
:10082C0000BF00BF00BF00BF00BF00BF00BF00BFC4
:10083C0000BF00BF00BF00BF00BF00BF00BF00BFB4
:10084C0000BF00BF00BF00BF00BF00BF00BF00BFA4
:10085C0000BF00BF00BF00BF00BF00BF00BF00BF94
:10086C0000BF00BF00BF00BF00BF00BF00BF00BF84
:10087C0000BF00BF00BF00BF00BF00BF00BF00BF74
:10088C0000BF00BF00BF00BF00BF00BF00BF00BF64
:10089C0000BF00BF00BF00BF00BF00BF00BF00BF54
:1008AC0000BF00BF00BF00BF00BF00BF00BF00BF44
:1008BC0000BF00BF00BF00BF00BF00BF00BF00BF34
:1008CC0000BF00BF00BF00BF00BF00BF00BF00BF24
:1008DC0000BF00BF00BF00BF00BF00BF00BF00BF14
:1008EC0000BF00BF00BF00BF00BF00BF00BF00BF04
:1008FC0000BF00BF00BF00BF00BF00BF00BF00BFF4
:10090C0000BF00BF00BF00BF00BF00BF00BF00BFE3
:10091C0000BF00BF00BF00BF00BF00BF00BF00BFD3
:10092C0000BF00BF00BF00BF00BF00BF00BF00BFC3
:10093C0000BF00BF00BF00BFDBE6002B00F033811F
:10094C004FF400050026134A0495BDF80A30033114
:10095C00033B9BB2ADF80A3011F8033CDBB28DF8C7
:10096C00063011F8023CDBB28DF8073011F8013C6F
:10097C00DBB28DF808309DF806709DF807309DF8B5
:10098C0008001B0243EA0743034303938DF80560F9
:10099C0080E000BFD0000020004600BF00BF00BFB9
:1009AC0000BF00BF00BF00BF00BF00BF00BF00BF43
:1009BC0000BF00BF00BF00BF00BF00BF00BF00BF33
:1009CC0000BF00BF00BF00BF00BF00BF00BF00BF23
:1009DC0000BF00BF00BF00BF00BF00BF00BF00BF13
:1009EC0000BF00BF00BF00BF00BF00BF00BF00BF03
:1009FC0000BF00BF00BF00BF00BF00BF00BF00BFF3
:100A0C0000BF00BF00BF00BF00BF00BF00BF00BFE2
:100A1C0000BF00BF00BF00BF00BF00BF00BF00BFD2
:100A2C0000BF00BF00BF00BF00BF00BF00BF00BFC2
:100A3C0000BFE3791068C3EBC30300EB8307BF88E7
:100A4C0050F823305F83004600BF00BF00BF00BFDB
:100A5C0000BF00BF00BF00BF00BF00BF00BF00BF92
:100A6C0000BF00BF00BF00BF00BF00BF00BF00BF82
:100A7C0000BF00BF00BF00BF00BF00BF049B5B08EE
:100A8C0004939DF805300133DBB2172B8DF805303C
:100A9C0000F28380E3791068C3EBC30300EB830798
:100AAC00BF8850F823301F830398049B18427FF4AF
:100ABC0073AF004600BF00BF00BF00BF00BF00BF48
:100ACC0000BF00BF00BF00BF00BF00BF00BF00BF22
:100ADC0000BF00BF00BF00BF00BFE3791068C3EBCD
:100AEC00C30300EB8307BF8850F823305F830046B5
:100AFC0000BF00BF00BF00BF00BF00BF00BF00BFF2
:100B0C0000BF00BF00BF00BF00BF00BF00BF00BFE1
:100B1C0000BF00BF00BF00BF00BF00BF00BF00BFD1
:100B2C0000BF00BF00BF00BF00BF00BF00BF00BFC1
:100B3C0000BF00BF00BF00BF00BF00BF00BF00BFB1
:100B4C0000BF00BF00BF00BF00BF00BF00BF00BFA1
:100B5C0000BF00BF00BF00BF00BF00BF00BF00BF91
:100B6C0000BF00BF00BF00BF00BF00BF00BF00BF81
:100B7C0000BF00BF00BF00BF00BF00BF00BF00BF71
:100B8C0000BF00BF00BF00BF00BF00BF00BF00BF61
:100B9C0000BF00BF00BF00BF70E7BDF80A309BB2BA
:100BAC00002B7FF4D1AE62B600F070FD206107B06F
:100BBC00F0BD002BF7D04FF4000E0026544B1868F4
:100BCC00544BCDF810E0BDF80A200331033A92B231
:100BDC00ADF80A2011F8032CD2B28DF8062011F8CA
:100BEC00022CD2B28DF8072011F8012CD2B28DF85C
:100BFC0008209DF806C09DF807209DF80870120289
:100C0C0042EA0C423A4303928DF80560E2795D6842
:100C1C00C2EBC20200EB8207BF8850F82220059578
:100C2C001783039F049A174225D05A68059FD21B3D
:100C3C004F2AFAD9E279C2EBC20200EB8207BF88D5
:100C4C0050F8222057835A6805925A68059FD21B88
:100C5C00072AFAD9049A520804929DF80520013209
:100C6C00D2B2172A8DF80520D0D9BDF80A2092B23D
:100C7C00002AA6D197E75A68059FD21B182AFAD9E1
:100C8C00E279C2EBC20200EB8207BF8850F8222047
:100C9C0057835A6805925A68059FD21B452AFAD980
:100CAC00D8E77047002B3FF47EAF4FF0004500268D
:100CBC00174A0495BDF80A300431043B9BB2ADF8D9
:100CCC000A3011F8043CDBB28DF8073011F8033C04
:100CDC00DBB28DF8063011F8023CDBB28DF808302F
:100CEC0011F8013CDBB28DF809309DF807C09DF876
:100CFC0006309DF808001B049DF8097043EA0C634C
:100D0C003B4343EA002303938DF805607FE000BF6B
:100D1C00D0000020001000E0004600BF00BF00BF64
:100D2C0000BF00BF00BF00BF00BF00BF00BF00BFBF
:100D3C0000BF00BF00BF00BF00BF00BF00BF00BFAF
:100D4C0000BF00BF00BF00BF00BF00BF00BF00BF9F
:100D5C0000BF00BF00BF00BF00BF00BF00BF00BF8F
:100D6C0000BF00BF00BF00BF00BF00BF00BF00BF7F
:100D7C0000BF00BF00BF00BF00BF00BF00BF00BF6F
:100D8C0000BF00BF00BFE3791068C3EBC30300EBE7
:100D9C008307BF8850F823305F83004600BF00BF35
:100DAC0000BF00BF00BF00BF00BF00BF00BF00BF3F
:100DBC0000BF00BF00BF00BF00BF00BF00BF00BF2F
:100DCC0000BF00BF00BF00BF00BF00BF00BF00BF1F
:100DDC0000BF00BF00BF00BF00BF00BF00BF00BF0F
:100DEC0000BF00BF00BF00BF00BF00BF00BF00BFFF
:100DFC0000BF00BF00BF00BF049B5B0804939DF8BD
:100E0C0005300133DBB21F2B8DF805307ED8E3792A
:100E1C001068C3EBC30300EB8307BF8850F8233083
:100E2C001F830398049B18427FF476AF004600BFE3
:100E3C0000BF00BF00BF00BF00BF00BF00BF00BFAE
:100E4C0000BF00BF00BF00BF00BF00BF00BF00BF9E
:100E5C0000BF00BFE3791068C3EBC30300EB83074B
:100E6C00BF8850F823305F83004600BF00BF00BF2F
:100E7C0000BF00BF00BF00BF00BF00BF00BF00BF6E
:100E8C0000BF00BF00BF00BF00BF00BF00BF00BF5E
:100E9C0000BF00BF00BF00BF00BF00BF00BF00BF4E
:100EAC0000BF00BF00BF00BF00BF00BF00BF00BF3E
:100EBC0000BF00BF00BF00BF00BF00BF00BF00BF2E
:100ECC0000BF00BF00BF00BF00BF00BF00BF00BF1E
:100EDC0000BF00BF00BF00BF00BF00BF00BF00BF0E
:100EEC0000BF00BF00BF00BF00BF00BF00BF00BFFE
:100EFC0000BF00BF00BF00BF00BF00BF00BF00BFEE
:100F0C0000BF00BF00BF00BF00BF75E7BDF80A30CF
:100F1C009BB2002B7FF4CDAE45E6032D00F02B8168
:100F2C00002B3FF440AE4FF400050026174A049501
:100F3C00BDF80A30E079033B9BB2ADF80A300B7870
:100F4C001768DBB28DF807304B78C0EBC000DBB212
:100F5C008DF808308B7807EB800CDBB28DF80630FF
:100F6C009DF807E09DF80830BCF804C01B0243EA6A
:100F7C000E439DF806E057F8200043EA0E03039356
:100F8C0003318DF80560A0F81AC07CE0D000002079
:100F9C00049B5B080493004600BF00BF00BF00BF6A
:100FAC0000BF00BF00BF00BF00BF00BF00BF00BF3D
:100FBC0000BF00BF00BF00BF00BF00BF00BF00BF2D
:100FCC0000BF00BF00BF00BF00BF00BF00BF00BF1D
:100FDC0000BF00BF00BF00BF00BF00BF00BF00BF0D
:100FEC0000BF00BF00BF00BF00BF00BF00BF00BFFD
:100FFC0000BF00BF00BF00BF00BF00BF00BF00BFED
:10100C0000BF00BF00BF00BF00BF00BF00BF00BFDC
:10101C0000BF00BF00BF00BF00BF00BFE079176872
:10102C009DF80530C0EBC00007EB800CBCF804C089
:10103C0057F820000133DBB28DF80530A0F818C04A
:10104C00004600BF00BF00BF00BF00BF00BF00BF15
:10105C0000BF00BF00BF00BF00BF00BF00BF00BF8C
:10106C0000BF00BF00BF00BF00BF9DF80530182BAC
:10107C007AD0E3791068C3EBC30300EB8307BF8816
:10108C0050F823305F830398049B184280D10046AC
:10109C0000BF00BF00BF00BF00BF00BF00BF00BF4C
:1010AC0000BF00BF00BF00BF00BF00BF00BF00BF3C
:1010BC00E3791068C3EBC30300EB8307BF8850F8D8
:1010CC0023301F839DF805300133DBB28DF80530DA
:1010DC00049B5B080493004600BF00BF00BF00BF29
:1010EC0000BF00BF00BF00BF00BF00BF00BF00BFFC
:1010FC0000BF00BF00BF00BF00BF00BF00BF00BFEC
:10110C0000BF00BF00BF00BF00BF00BF00BF00BFDB
:10111C0000BF00BF00BF00BF00BF00BF00BF00BFCB
:10112C0000BF00BF00BF00BF00BF00BF00BF00BFBB
:10113C0000BF00BF00BF00BF00BF00BF00BF00BFAB
:10114C0000BF00BF00BF00BF00BF00BF00BF00BF9B
:10115C0000BF00BF00BF00BF00BF00BF00BF00BF8B
:10116C009DF80530182B84D1BDF80A309BB2002BAA
:10117C007FF4DDAE17E5002B3FF415AD4FF4000501
:10118C000026134A0495BDF80A300331033B9BB289
:10119C00ADF80A3011F8033CDBB28DF8073011F8CA
:1011AC00023CDBB28DF8063011F8013CDBB28DF855
:1011BC0008309DF807709DF806309DF808001B025A
:1011CC0043EA0743034303938DF80560E1E000BF56
:1011DC00D0000020004600BF00BF00BF00BF00BF12
:1011EC0000BF00BF00BF00BF00BF00BF00BF00BFFB
:1011FC0000BF00BF00BF00BF00BF00BF00BF00BFEB
:10120C0000BF00BF00BF00BF00BF00BF00BF00BFDA
:10121C0000BF00BF00BF00BF00BF00BF00BF00BFCA
:10122C0000BF00BF00BF00BF00BF00BF00BF00BFBA
:10123C0000BF00BF00BF00BF00BF00BF00BF00BFAA
:10124C0000BF00BF00BF00BF00BF00BF00BF00BF9A
:10125C0000BF00BF00BF00BF00BF00BF00BF00BF8A
:10126C0000BF00BF00BF00BF00BF00BF00BF00BF7A
:10127C0000BF00BF00BF00BF00BF00BF00BF00BF6A
:10128C0000BF00BF00BF00BF00BF00BF00BF00BF5A
:10129C0000BF00BF00BF00BF00BF00BF00BF00BF4A
:1012AC0000BF00BF00BF00BF00BF00BF00BF00BF3A
:1012BC0000BF00BF00BF00BF00BF00BF00BF00BF2A
:1012CC0000BF00BF00BF00BF00BF00BF00BF00BF1A
:1012DC0000BF00BF00BF00BF00BF00BF00BF00BF0A
:1012EC0000BF00BF00BF00BF00BF00BF00BF00BFFA
:1012FC0000BF00BF00BFE3791068C3EBC30300EB72
:10130C008307BF8850F823305F83004600BF00BFBF
:10131C0000BF00BF00BF00BF00BF00BF00BF00BFC9
:10132C0000BF00BF00BF00BF00BF00BF00BF00BFB9
:10133C0000BF00BF00BF00BF00BF00BF00BF00BFA9
:10134C0000BF00BF00BF00BF00BF00BF00BF00BF99
:10135C0000BF00BF00BF00BF00BF00BF00BF00BF89
:10136C0000BF00BF00BF00BF00BF00BF00BF00BF79
:10137C0000BF00BF00BF00BF00BF049B5B0804930D
:10138C009DF805300133DBB2172B8DF8053000F2D8
:10139C00EB80E3791068C3EBC30300EB8307BF88D2
:1013AC0050F823301F830398049B18427FF412AF2C
:1013BC00004600BF00BF00BF00BF00BF00BF00BFA2
:1013CC0000BF00BF00BF00BF00BF00BF00BF00BF19
:1013DC0000BF00BF00BF00BF00BF00BF00BF00BF09
:1013EC0000BF00BF00BF00BF00BF00BF00BF00BFF9
:1013FC0000BF00BF00BF00BF00BF00BF00BF00BFE9
:10140C0000BF00BF00BF00BF00BF00BF00BF00BFD8
:10141C0000BF00BF00BF00BF00BF00BF00BF00BFC8
:10142C0000BF00BF00BF00BF00BF00BF00BF00BFB8
:10143C0000BFE3791068C3EBC30300EB8307BF88DD
:10144C0050F823305F83004600BF00BF00BF00BFD1
:10145C0000BF00BF00BF00BF00BF00BF00BF00BF88
:10146C0000BF00BF00BF00BF00BF00BF00BF00BF78
:10147C0000BF00BF00BF00BF00BF00BF00BF00BF68
:10148C0000BF00BF00BF00BF00BF00BF00BF00BF58
:10149C0000BF00BF00BF00BF00BF00BF00BF00BF48
:1014AC0000BF00BF00BF00BF00BF00BF00BF00BF38
:1014BC0000BF00BF00BF00BF00BF00BF00BF00BF28
:1014CC0000BF00BF00BF00BF00BF00BF00BF00BF18
:1014DC0000BF00BF00BF00BF00BF00BF00BF00BF08
:1014EC0000BF00BF00BF00BF00BF00BF00BF00BFF8
:1014FC0000BF00BF00BF00BF00BF00BF00BF00BFE8
:10150C0000BF00BF00BF00BF00BF00BF00BF00BFD7
:10151C0000BF00BF00BF00BF00BF00BF00BF00BFC7
:10152C0000BF00BF00BF00BF00BF00BF00BF00BFB7
:10153C0000BF00BF00BF00BF00BF00BF00BF00BFA7
:10154C0000BF00BF00BF00BF00BF00BF00BF00BF97
:10155C0000BF00BF00BF10E7BDF80A309BB2002BE4
:10156C007EF492AFFFF71FBBBDF80A309BB2002B85
:10157C007FF408AEFFF717BB4388F0B58B4226D932
:10158C00057AC2F30743C2F30724D6B23DB16B43CD
:10159C006C436E43C3F30723C4F30724360A90F855
:1015AC0006C0C768BCF1060F0CBF042503256943B0
:1015BC00ACF1020C7D18BCF1060F1DD8DFE80CF065
:1015CC00041C08040F0404007C546B70AE70F0BD56
:1015DC00FE2B28BFFE237B546E70AC70F7E77B5458
:1015EC006C70AE70037A120E13B9D2B2EA70EEE7D9
:1015FC005A43C2F30722F9E77B546C70AE70E6E7EE
:10160C0042EA012242EA00407047000008B500F0AF
:10161C0005F8014B186008BDD000002008B5024B3E
:10162C001B681B68019308BDB001060808B5024B86
:10163C001B685B68019308BDB001060808B5024B36
:10164C001B689B68019308BDB001060808B5024BE6
:10165C001B68DB68019308BDB001060808B5024B96
:10166C001B681B69019308BDB001060808B5024B45
:10167C001B681B6B019308BDB001060808B5024B33
:10168C001B685B68019308BD9C01060808B5024BFA
:10169C001B681B69019308BD9C01060808B5024B29
:1016AC001B685B69019308BD9C01060808B5024BD9
:1016BC001B685B6C019308BDD001060808B5024B92
:1016CC001B689B6C019308BDD001060808B5024B42
:1016DC001B689B69019308BDC401060808B5024B41
:1016EC001B685B6A019308BDC401060808B5024B70
:1016FC001B689B6A019308BDC401060808B5024B20
:10170C001B68DB6A019308BDC401060808B5024BCF
:10171C001B681B6B019308BDC401060808B5024B7E
:10172C001B685B6B019308BDC401060808B5024B2E
:10173C001B689B6B019308BDC401060808B5024BDE
:10174C001B681B6C019308BDC401060808B5024B4D
:10175C001B681B6E019308BDAC01060808B5024B53
:10176C001B685B6E019308BDAC01060808B5024B03
:10177C001B689B6E019308BDAC01060808B5024BB3
:10178C001B68DB6E019308BDAC01060808B5024B63
:10179C001B681B6F019308BDAC01060808B5024B12
:1017AC001B685B6F019308BDAC01060808B5034BC1
:1017BC001B68D3F88030019308BD0000AC0106080B
:1017CC0008B5024B1B68DB69019308BDB401060820
:1017DC0008B5024B1B681B6A019308BDB4010608CF
:1017EC0008B5024B1B681B68019308BDD80106089D
:1017FC0008B5024B1B685B68019308BDD80106084D
:10180C0008B5024B1B681B69019308BDD80106087B
:10181C0008B5024B1B685B69019308BDD80106082B
:10182C0008B5024B1B689B69019308BDD8010608DB
:10183C0008B5024B1B68DB69019308BDD80106088B
:10184C0008B5024B1B681B6A019308BDD80106083A
:10185C0008B5024B1B689B6C019308BDC0010608C0
:10186C0008B5024B1B685B68019308BDA401060810
:10187C0008B5024B1B685B69019308BDA4010608FF
:10188C0008B5024B1B68DB6C019308BDA40106086C
:10189C0008B5024B1B685B6D019308BDA4010608DB
:1018AC0008B5034B1B68D3F89030019308BD0000BA
:1018BC00A401060808B5034B1B68D3F89C300193B0
:1018CC0008BD0000A401060808B5024B1B685B6844
:1018DC00019308BDC801060808B5024B1B689B683C
:1018EC00019308BDC801060808B5024B1B68DB68EC
:1018FC00019308BDC801060808B5024B1B681B699B
:10190C00019308BDC801060808B5024B1B685B694A
:10191C00019308BDC801060808B5024B1B689B69FA
:10192C00019308BDC801060808B5024B1B68DB69AA
:10193C00019308BDC801060808B5024B1B681B6A59
:10194C00019308BDC801060808B5024B1B681B6B48
:10195C00019308BDC801060808B5024B1B685B6BF8
:10196C00019308BDC801060808B5024B1B681B6C27
:10197C00019308BDC801060808B5024B1B685B6CD7
:10198C00019308BDC801060808B5024B1B681B680B
:10199C00019308BDCC01060808B5024B1B685B68B7
:1019AC00019308BDCC01060808B5024B1B685B69A6
:1019BC00019308BDCC01060808B5024B1B681B6AD5
:1019CC00019308BDCC01060808B5024B1B68DB6B04
:1019DC00019308BDCC01060808B5024B1B681B68B7
:1019EC00019308BDA001060808B5024B1B685B6893
:1019FC00019308BDA001060808B5024B1B689B6843
:101A0C00019308BDA001060808B5024B1B68DB6AF0
:101A1C00019308BDA001060808B5024B1B681B6B9F
:101A2C00019308BDA001060808B5024B1B685B6C4E
:101A3C00019308BDA001060870B5002604460D46AA
:101A4C0040F8086FFFF732FE28462570FFF7B8FE06
:101A5C002046666070BD000002220020044B1A6014
:101A6C00044B054A1860988098719A60FFF7F8BE8D
:101A7C00E0000020D40000200000FFFF10B5044659
:101A8C0001F049F9431E20462344834206D90278CB
:101A9C00197800F8011B03F80129F6E710BD70B5A1
:101AAC000C46911E222922D8254668B1B0FBF2F6CD
:101ABC0002FB1600C1B2092894BF30315731C9B2AC
:101ACC00304605F8011BF0E72A46302123449342A7
:101ADC0002D902F8011BFAE75A1BAB4238BF0022AD
:101AEC0000232046AB54FFF7C9FF204670BD0020F1
:101AFC00FCE738B5031E0C4615460DDA2D22B3F162
:101B0C00004F0CBF1846584201230A702A4619444C
:101B1C00FFF7C5FF204638BD0123F9E710B5044691
:101B2C000068FFF761FF204610BD10B50446006841
:101B3C0008B1FFF759FF0023C4E90133236010BD3E
:101B4C0038B504460D4600680131FFF755FF10B15A
:101B5C00C4E90005012038BD10B50368044623B163
:101B6C0043688B4201D3012010BD2046FFF7E8FFEC
:101B7C000028F9D0A368002BF5D122681370F2E786
:101B8C0070B50E46114604461546FFF7E5FF20B921
:101B9C002046FFF7CAFF204670BD2A463146206812
:101BAC00A56001F050F800212268A368D154F2E737
:101BBC0038B5002304460D46C0E900338360037337
:101BCC0039B1084601F0A7F8294602462046FFF72E
:101BDC00D7FF204638BD38B5054600680C4668B1BD
:101BEC006A688B689A4207D3096801F071F8A36898
:101BFC00AB600023A36038BDFFF7F6FE23682B60B3
:101C0C0063686B60A368AB600023C4E90033F1E741
:101C1C00884210B50B46044604D0096821B19A6875
:101C2C00FFF7AEFF204610BDFFF77FFFFAE700235A
:101C3C0010B50446C0E9003383600373FFF7E8FF77
:101C4C00204610BD884210B5044601D0FFF7C3FFF3
:101C5C00204610BD38B505460C4649B1084601F082
:101C6C005AF8214602462846FFF78AFF284638BD17
:101C7C00FFF75BFFFAE710B5002304468AB0C4E90E
:101C8C000033A3602373084601A9FFF732FF2046F7
:101C9C0001A9FFF7DFFF20460AB010BD08B5826826
:101CAC003AB921B10878B0FA80F0400900E001207F
:101CBC0008BD006809B90078F5E700F0FFFFF2E70E
:101CCC00006808B100F0BBBF7047F8B506460D467A
:101CDC0000248F18BD420CD0336830469B6815F831
:101CEC00011B9847031E01DB1C44F3E7002C08BFC3
:101CFC001C462046F8BD70B505460C46084649B151
:101D0C0001F009F82B68024621462846BDE87040D0
:101D1C00DB68184770BD08B5FFF7EDFF08BD036819
:101D2C009B68184738B50D210546FFF7F8FF0A21C7
:101D3C0004462846FFF7F3FF204438BD38B5054666
:101D4C00FFF7D9FF04462846FFF7ECFF204438BDC7
:101D5C000023012A98BF0A2230B58BB00C468DF8AF
:101D6C00243009A92546B4FBF2F404FB1253DBB270
:101D7C00092B94BF30333733DBB2AA4201F8013D53
:101D8C00F0D9FFF7B8FF0BB030BD002340681A46FE
:101D9C001946FFF7B9BD0B68036013B15A680132DD
:101DAC005A607047014B024A1A607047E4000020E9
:101DBC00CC2F0A08024B1A68024B1A60704700BFFE
:101DCC0010000020E80000200021FFF751BD10B5E5
:101DDC008368044613B1032201469847204610BD80
:101DEC0013B56C460B46024603C884E8030093E81F
:101DFC00030082E8030094E8030083E8030002B0C8
:101E0C0010BD00000022014B9A607047EC000020CE
:101E1C00014B1860704700BF1400002008B5134B2D
:101E2C0043B100F039FC03681B699847002801DDB9
:101E3C00AFF300800E4B43B100F0DEFC03681B696E
:101E4C009847002801DDAFF300800A4B0BB1AFF3CC
:101E5C000080094B43B100F059FC03681B6998479B
:101E6C00002801DDAFF3008008BD00BF00000000BA
:101E7C0000000000000000000000000008B5FFF7A3
:101E8C00CDFFFFF70BFC014B186008BD7805002057
:101E9C000548064A08B5121A054900F0D4FE054B50
:101EAC00054A1A6008BD00BF0040024004400240D1
:101EBC0050320A08004002401E1C279A002307B526
:101ECC001A466FF077010093FFF7F4FC03B05DF84E
:101EDC0004FB000007B543880A2B08D0502B0BD10C
:101EEC00094B1B684BB103B05DF804EB1847FFF7C7
:101EFC00E5FF03B05DF804FB00231A466FF0770191
:101F0C000093FFF7D7FCF4E700010020002110B587
:101F1C001148FFF789FD114B1A68114B9A420CBFFF
:101F2C00012200220F4B1A7001D0FFF7B1FFFFF70F
:101F3C00A5FB044600F09EFE0B4B13B12046AFF3FD
:101F4C00008000210848FFF73FFDBDE8104000214C
:101F5C000648FFF7A5BC00BF1D1E0A080040024042
:101F6C001E1C279AFC00002000000000E11E0A083D
:101F7C0070470020704710B50446102100F052FE47
:101F8C00204610BD08B5FFF7F6FF08BD002230B59E
:101F9C004FF69C74026084808D888C800C688580E0
:101FAC0004600A6030BD10B504460068FFF71CFDE4
:101FBC00204610BD38B5C468F4B12378022B03D188
:101FCC0004F10C00FFF7EFFF656835B12846FFF709
:101FDC00FEFE1021284600F025FEA56835B12846E6
:101FEC00FFF7F5FE1021284600F01CFE2046BDE848
:101FFC003840142100F016BE38BD10B588B0044628
:10200C006846FFF7D5FD694604A8FFF710FE04A843
:10201C00A047044604A8FFF781FD6846FFF77EFD44
:10202C00204608B010BD1FB500231024CDE90201D5
:10203C00019269461A461846ADF80230ADF80040D8
:10204C00FFF7AAFC04B010BD73B50E46044656F853
:10205C00043B0D4601A831460093FFF79CFE009B04
:10206C00019A23600023626001A801930093FEF79C
:10207C005FF83046FEF75CF82846082100F0D2FDE8
:10208C00204602B070BD826810B50AB900F0CEFDD2
:10209C00C368BDE81040184708B5006800F110018E
:1020AC00FFF7F1FF08BD826810B50AB900F0BEFD5C
:1020BC00C368BDE81040184708B5006800F110016E
:1020CC00FFF7F1FF08BD000038B50023044603609C
:1020DC0010200D46FDF7D9FF28B10123C0E90133CB
:1020EC00024BC56003602060204638BDF42F0A08FF
:1020FC0038B5002383608B6804460D462BB1022251
:10210C009847EB68E360AB68A360204638BD0000DD
:10211C00F0B589B004686846FFF738FF4FF002034A
:10212C00D4E84F2F002A03D1C4E8413F0029F7D14E
:10213C0025D104F10C0569462846FFF727FF01233A
:10214C00BFF35B8F63700020BFF35B8F04F1080358
:10215C0053E8006F43E80002002AF9D1BFF35B8F0C
:10216C006EB1FFF78DFB78B129463046FFF78BFF38
:10217C003046FFF72CFE1021304600F053FD684628
:10218C00FFF711FF09B0F0BD314602A8FFF7B0FF11
:10219C00E068B4F9105008B100F0A2FD06901020D0
:1021AC00ADF81C50FDF771FF0546E8B100278760BC
:1021BC001820FDF76AFF044688B10146876002A823
:1021CC00FFF70EFE049BA268A360059B0492E268D5
:1021DC0006A9E36004F110000592FFF7D7FE084B47
:1021EC002C60EB60074BAB6006A8FFF7DCFE02A887
:1021FC00FFF7EDFD002229460348FFF749FBB7E73F
:10220C00A5200A083D230A084D280A082DE9F047A5
:10221C008AB005460C46174698469DF84890FFF73D
:10222C00C3FB07AE824638BB4FF62E73059005A94B
:10223C003046ADF81830FFF7A9FE1420FDF725FF46
:10224C00044648B1022303700123C0E901AA43707C
:10225C0031460C30FFF79AFE2846214640F8044BD5
:10226C00FFF732FF3046FFF79EFE05A8FFF79BFEF7
:10227C0028460AB0BDE8F0870C234FF0000A142062
:10228C00CDE908AA0793FDF700FF014628B1C0E984
:10229C0001AA80F800A080F801A004A80391FFF720
:1022AC0013FF224B08200893FDF7EFFE824628B15E
:1022BC00039B04A940F8043BFFF76DFD42463946E9
:1022CC00204600965FFA89F3CDF824A0FFF774FB43
:1022DC00B8B9039B5B7803F0FF0293B94FF69C737C
:1022EC0005A903A80592ADF81830FFF711FF05A852
:1022FC00FFF759FE05A80999FFF7A6FE06A8FDF7FA
:10230C0017FF039B04A906A80593FFF744FD059B43
:10231C00069A2B6000236A6006A806930593FDF7C6
:10232C0007FF04A8FDF704FFA2E700BF01240A0879
:10233C00022AF8B5054607D0032A18D0012A01D184
:10234C000B6803600020F8BD18200E68FDF79DFE99
:10235C00044650B13146FFF7CBFE3069B6F9147024
:10236C0008B100F0BDFC2061A7822C60EAE704688C
:10237C00002CE7D004F11000FFF715FE2046FFF704
:10238C0026FD1821204600F04DFCDBE738B5002374
:10239C0083608B6804460D462BB102229847EB688C
:1023AC00E360AB68A360204638BD022A70B50446D2
:1023BC0007D0032A12D0012A01D10B680360002038
:1023CC0070BD14200E68FDF760FE054620B1314645
:1023DC00FFF7DCFF337C2B742560F0E70468002CDE
:1023EC00EDD02046FFF7F3FC1421204600F01AFC38
:1023FC00E5E70000F0B5044689B00D4601A811468A
:10240C00FFF722FEA4B124B21DB1284600F068FCEF
:10241C00054601A803A90395ADF81040FFF778FE17
:10242C0003A8FFF7C0FD02A8FDF782FE09B0F0BDBE
:10243C000123019DD5E84F2F002A03D1C5E8413F68
:10244C000029F7D1EFD12B73BFF35B8F6B70BFF308
:10245C005B8F2B1D53E8006F43E80042002AF9D133
:10246C00BFF35B8F002EDED02046FFF709FA07463C
:10247C0060B1304605F10C01FFF715FE3046FFF751
:10248C00A6FC1021304600F0CDFBCCE7314603A86A
:10249C00FFF77CFF2B7B10208DF81C30FDF7F5FD32
:1024AC000546D0B187601420FDF7EFFD044678B1E6
:1024BC000146876003A8FFF793FC059BA268A36005
:1024CC00069B0592E268E3609DF81C30069223742B
:1024DC00064B2C60EB60064BAB6003A8FFF777FC58
:1024EC00002229460348FFF7D3F9C7E7C5200A089D
:1024FC00B7230A084D280A08704710B5044618215E
:10250C0000F090FB204610BDF8B50E46002400F1FB
:10251C000807051D17F8011D0A223046FFF718FCA5
:10252C00AF42044401D12046F8BD002CF2D02E213C
:10253C003046FFF7F4FB0444ECE7000010B504460A
:10254C00044B1122002140F8043B00F08AFB20468A
:10255C0010BD00BF10300A080346074A10B543F8F7
:10256C00042B01F1100251F8044B914243F8044B37
:10257C00F9D10A781A7010BD10300A08024AC0E965
:10258C00002104220275704710300A0810B59DF81E
:10259C00084044EA0324042344EA024444EA016464
:1025AC004460037510BD000037B5044D05609DF8FF
:1025BC0018500095FFF7EAFF03B030BD10300A0841
:1025CC00417470477047704708B50021007CFFF7D5
:1025DC0027F940EAE07008BD08B50121007CFFF73F
:1025EC001FF940EAE07008BD08B5007CFFF710F950
:1025FC0020EAE07008BD08B5007CFFF701F920EA7D
:10260C00E07008BD38B50446007C0D46FFF700F9B4
:10261C00002801DC607C28B12946207CFFF708F9F2
:10262C0020EAE07038BD007CFFF70AB910B504460B
:10263C00142100F0F7FA204610BD704710B54FF486
:10264C007A73044608460021C4E90113044B207434
:10265C002360012311466374FFF7C2F8204610BDB6
:10266C0024300A080022007CFFF7C2B810B50446DB
:10267C001422002100F0F5FA054B20466360054B4F
:10268C00E36040F2011323818123238210BD00BF3C
:10269C00340100203502002030B50E4D87B001A862
:1026AC00FFF7E4FF2978BFF35B8F11F001040ED123
:1026BC002846FDF7F0FC50B1214601AA0648FFF769
:1026CC00BDFF2846FDF7ECFC044800F0B2FA0248C6
:1026DC0007B030BD040100200C010020D1250A08F0
:1026EC0010B504461422002100F0BBFA054B20461D
:1026FC006360054BE36040F2011323818123238245
:10270C0010BD00BFB6020020B703002010B50E4C60
:10271C0086B001A8FFF7E4FF2378BFF35B8FDB07DC
:10272C000ED42046FDF7B7FC50B1012101AA074891
:10273C00FFF784FF2046FDF7B3FC054800F079FA5B
:10274C00024806B010BD00BF080100202001002087
:10275C0047260A08704741747047704708B5007CDB
:10276C00FEF7ECFF20EAE07008BD08B5007CFEF730
:10277C00BDFF20EAE07008BD08B5007CFEF7C6FF7F
:10278C0040EAE07008BD08B5007CFEF7B7FF40EAF0
:10279C00E07008BD007CFEF7C1BF70B5467C0446F6
:1027AC000D462EB12946207CBDE87040FEF796BF41
:1027BC00007CFEF7C3FF0028F4DC304670BD10B57A
:1027CC000446142100F02EFA204610BD4FF0000CE8
:1027DC0010B50446084611464FF47A72C4E901C29A
:1027EC00044A20742260012262741A46FEF76EFFBE
:1027FC00204610BD54300A0838B50C4D2978BFF36B
:10280C005B8F11F001040FD12846FDF744FC58B141
:10281C002146074B074A0848FFF7D8FF2846FDF723
:10282C003FFC064800F005FA034838BD3804002088
:10283C00C00400203C0400204405002067270A083F
:10284C0010B5836804460BB900F0F0F9C3689847DB
:10285C00A3681BB103222146204698472046BDE8B9
:10286C001040102100F0DEB97047F8B50646154649
:10287C000C468F18BC4206D0336830469B6814F85F
:10288C00011B9847F6E72846F8BD0022007CFEF7AE
:10289C005DBF0021007CFEF761BF0021007CFEF7CC
:1028AC0065BF0021007CFEF769BF0021007CFEF7AC
:1028BC006DBF10B50446142100F0B4F9204610BDCC
:1028CC0010B54FF47A73044608460021C4E901138D
:1028DC00034B114623602074FEF768FF204610BDA1
:1028EC0084300A08002240681146FFF705B8F0B59D
:1028FC00154689B011220E460446002103A800F0AB
:10290C00B0F9284600F007FA002781B27368284610
:10291C00009703AAFEF79CFF30B139462046FFF71B
:10292C002DFE204609B0F0BD204603A9FFF714FE8A
:10293C00F7E7002240681146FEF7FEBF0022406810
:10294C001146FFF709B800224068FEF7FDBF0022D0
:10295C00406881F00101FEF7E7BF002340681A468A
:10296C001946FEF7D9BF002240681146FEF7B4BFE6
:10297C00002202214068FEF7B7BF002340681A46C8
:10298C00FEF7A2BF0422024B5A60024A1A6070473B
:10299C0058050020AC300A08002340681A46FEF7A0
:1029AC0093BF002202214068FEF79EBF00224068C0
:1029BC001146FEF791BF002240681146FEF79CBFFE
:1029CC00002340681A461946FEF79EBF0023406854
:1029DC001A461946FEF7A0BF00214068FEF7C4BF97
:1029EC0000214068FEF7C8BF0022406881F0010159
:1029FC00FEF79ABF00224068FEF7A6BF002240688F
:102A0C001146FEF7A9BF002240681146FEF794BF9D
:102A1C0070B515468EB0044608A8FFF78FFD11223D
:102A2C00002103A800F01DF90026284600F073F9D8
:102A3C000A4B009681B25B68284603AAFEF708FF92
:102A4C0030B131462046FFF799FD20460EB070BDDF
:102A5C00204603A9FFF780FDF7E700BF58050020CB
:102A6C00024B034A1A6000225A607047600500202E
:102A7C00E8300A08024B986808B1FEF71FBE704791
:102A8C006C050020172870B5044601D9002070BDD4
:102A9C00A0F10D03022B0BD9012824D800F09EF8CD
:102AAC000021007CFEF77AFE80F00100C0B2EEE758
:102ABC00124E3178BFF35B8F11F001050DD130460A
:102ACC00FDF7E9FA48B129460D48FEF7B5FF304647
:102ADC00FDF7E6FA0B4800F0ACF8094B1878FEF756
:102AEC0077FE0028D2D1123C012C05D8FFF784FECA
:102AFC00007CFEF71BFED7E70120C8E76805002025
:102B0C006C050020812A0A08172838B504460D46A2
:102B1C000AD8FF2908D0FFF7B5FF28B1294620466F
:102B2C00BDE83840FEF78ABD38BD38B504460D46C1
:102B3C00FEF78CFDFF2810D0062804D84D2323FA6D
:102B4C0000F0C30709D42046FFF79CFF28B12946A3
:102B5C002046BDE83840FEF781BD38BD10B50446AF
:102B6C0009289CBF0A34A4B22046FFF78BFF50B152
:102B7C0003212046FEF75AFD032804D12046BDE868
:102B8C001040FEF773BD002010BD0000002307B5F8
:102B9C001A46194600930348FFF706FD03B05DF88B
:102BAC0004FB00BF7C05002070470000002370B5BB
:102BBC00202543801423084E04460380314685604B
:102BCC000561284600F030F831466060284600F078
:102BDC002BF8E060204670BD1C310A0830B50E4D54
:102BEC0087B02978BFF35B8F11F0010411D128460F
:102BFC00FDF751FA68B101A8FFF7D8FF214601AAE9
:102C0C000648FFF75DFE2846FDF74AFA044800F037
:102C1C0010F8024807B030BD94050020980500203C
:102C2C00B52B0A08FDF735BAFDF731BA08B5FEF732
:102C3C00EBFE002301461A46184600F0F9B80A22AA
:102C4C00002100F0EBB80A44914200F1FF3300D1AF
:102C5C00704710B511F8014B914203F8014FF9D1AF
:102C6C0010BD03460244934200D1704703F8011B88
:102C7C00F9E7000038B50D4B04461D68AB6B7BB90A
:102C8C001820FEF7A9FE0A4A0A4BA863C0E90023E4
:102C9C00094B012283600B2383810023C0E90423A9
:102CAC000022AB6B1C615A6138BD00BF14000020C0
:102CBC000E33CDAB34126DE6ECDE050010F8012BB3
:102CCC0011F8013B012A28BF9A42F7D0D01A70475D
:102CDC00034611F8012B03F8012B002AF9D1704798
:102CEC00024B0146186800F003B800BF1400002026
:102CFC0070B5044608460D4600F00DF8461C3146EA
:102D0C002046FEF789FE044618B132462946FFF7E5
:102D1C009AFF204670BD034613F8012B002AFBD105
:102D2C00181A0138704700002DE9F0478C4686468A
:102D3C00394E60461CF8014BA55D15F00805F8D11D
:102D4C002D2C33D14FF001089CF8004000F1020CFF
:102D5C00002B5CD0102B0CD1302C0AD19CF800002D
:102D6C0000F0DF0058284DD110239CF801400CF1E5
:102D7C00020C002608F10047013FB7FBF3F930467F
:102D8C0003FB197AA4F13005092D18D82C46A3425F
:102D9C0024DD751C07D081451DD301D1A2451ADB5A
:102DAC00012600FB03401CF8014BEBE72B2C08BF62
:102DBC009CF80040A84608BF00F1020CC8E7A4F13B
:102DCC004105192D01D8373CE1E7A4F16105192D16
:102DDC0004D8573CDBE74FF0FF36E4E7731C06D111
:102DEC0022233846CEF8003042B9BDE8F087B8F15E
:102DFC00000F00D04042002AF7D00EB10CF1FF3189
:102E0C001160F2E73024002BB3D10823B1E7302C4A
:102E1C00A4D00A23ADE700BF1E310A0813460A46A8
:102E2C00014602480068FFF77FBF00BF1400002076
:102E3C002DE9F843DFF8BC800646D8F800001F46A1
:102E4C000D46914600F058F8264B1C6834B9264CB8
:102E5C001C60264B13B11B68C4F8883063681F2BA9
:102E6C0007DDD8F8000000F049F84FF0FF30BDE85E
:102E7C00F8835EB3D4F8880088B91D4B23B9D8F811
:102E8C00000000F03AF8F0E74FF48470FEF7A4FD70
:102E9C000028F4D00023C0E94033C4F88800012294
:102EAC006368022E40F8239002FA03F200EB8301D0
:102EBC00D0F8003143EA0203C0F80031C1F8807049
:102ECC0002BFD0F804311A43C0F804216368D8F863
:102EDC0000005A1C0233626044F8235000F00EF8D4
:102EEC000020C4E738060020AC05002000000000DC
:102EFC00E5190A08780000207047704770470000F9
:102F0C001D000A085D000A0885000A0889000A08E5
:102F1C00000000007365745F74656D7000637572FA
:102F2C0072656E745F74656D70006465736972654B
:102F3C00645F74656D7000616268697374656D704F
:102F4C00005265644D6F6465416C65727400526526
:102F5C00644D6F6465416C65727420697320696E91
:102F6C0020616374696F6E2E204C45442069732078
:102F7C006E6F772074686520636F6C6F722052657A
:102F8C0064005245444D4F4445414C455254004910
:102F9C006E76616C6964204D6F64653A20005265F1
:102FAC00644D6F6465206973206F6E002C01000006
:102FBC0018000000F40100002C010000500000007B
:102FCC006170700025592D256D2D25645425483AC6
:102FDC00254D3A2553257A0061736374696D65003C
:102FEC0000000000000000007D1F0A08831F0A0873
:102FFC00C11F0A08911F0A087F1F0A080000000061
:10300C000000000015250A0805250A0807250A08EE
:10301C000000000000000000D3250A0839260A0829
:10302C0011260A08D71C0A0803260A08D5250A08FF
:10303C00E5250A0833260A08F5250A08CD250A08CD
:10304C00000000000000000061270A08CB270A08D6
:10305C00A7270A08D71C0A0877270A0893270A0803
:10306C0085270A08A1270A0863270A0869270A087E
:10307C00000000000000000075280A08BF280A089C
:10308C0097280A0877280A089F280A08A7280A08F8
:10309C00AF280A08B7280A0800000000000000004A
:1030AC0087290A087D290A0873290A08F1280A08C1
:1030BC00971D0A0867290A08E5290A08ED290A0854
:1030CC005B290A0853290A0849290A083F290A08D2
:1030DC00FB280A080000000000000000A5290A08CF
:1030EC00AF290A08B9290A08C3290A08CD290A08F0
:1030FC00D9290A08E5290A08ED290A08F5290A0838
:10310C00012A0A08092A0A08132A0A081D2A0A0889
:10311C0000002020202020202020202828282828BB
:10312C002020202020202020202020202020202093
:10313C0020208810101010101010101010101010EB
:10314C0010100404040404040404040410101010EB
:10315C0010101041414141414101010101010101A6
:10316C000101010101010101010101010110101016
:10317C001010104242424242420202020202020279
:10318C0002020202020202020202020202101010E9
:10319C0010200000000000000000000000000000F3
:1031AC000000000000000000000000000000000013
:1031BC000000000000000000000000000000000003
:1031CC0000000000000000000000000000000000F3
:1031DC0000000000000000000000000000000000E3
:1031EC0000000000000000000000000000000000D3
:1031FC0000000000000000000000000000000000C3
:10320C0000000000000000000000000000000000B2
:10321C0000000000E5020A0819160A08651A0A08D7
:10322C00B11D0A08C11D0A08111E0A0891290A08B5
:10323C006D2A0A08992B0A08000000000000000003
:04324C00000000007E
:04325000000000007A
:103254000100000004000000020000000100000062
:10326400E42F0A08180000200000000000000000FD
:10327400000000000000000000000000000000004A
:10328400000000000000000000000000000000003A
:10329400000000000000000000000000000000002A
:1032A400000000000000000000000000000000001A
:1032B400000000000000000000000000000000000A
:0C32C40000000000000000003D0600209B
:1032D000FFFFFFFF00000102030405060708090ABB
:1032E0000B0C0D0E0F101112131415161718191AB6
:0832F0001B1C1D1E1F202800FD
:0432F80078563412BE
:04000005080A001CC9
:00000001FF
